{
  "_format": "hh-sol-artifact-1",
  "contractName": "TransferFunds",
  "sourceName": "contracts/TransferFunds.sol",
  "abi": [
    {
      "anonymous": false,
      "inputs": [
        {
          "indexed": false,
          "internalType": "address",
          "name": "from",
          "type": "address"
        },
        {
          "indexed": false,
          "internalType": "address",
          "name": "receiver",
          "type": "address"
        },
        {
          "indexed": false,
          "internalType": "uint256",
          "name": "amount",
          "type": "uint256"
        },
        {
          "indexed": false,
          "internalType": "string",
          "name": "message",
          "type": "string"
        },
        {
          "indexed": false,
          "internalType": "uint256",
          "name": "timestamp",
          "type": "uint256"
        }
      ],
      "name": "Transfer",
      "type": "event"
    },
    {
      "inputs": [
        {
          "internalType": "address payable",
          "name": "receiver",
          "type": "address"
        },
        {
          "internalType": "uint256",
          "name": "amount",
          "type": "uint256"
        },
        {
          "internalType": "string",
          "name": "message",
          "type": "string"
        }
      ],
      "name": "addToBlockchain",
      "outputs": [],
      "stateMutability": "nonpayable",
      "type": "function"
    },
    {
      "inputs": [],
      "name": "getAllTransactions",
      "outputs": [
        {
          "components": [
            {
              "internalType": "address",
              "name": "sender",
              "type": "address"
            },
            {
              "internalType": "address",
              "name": "receiver",
              "type": "address"
            },
            {
              "internalType": "uint256",
              "name": "amount",
              "type": "uint256"
            },
            {
              "internalType": "string",
              "name": "message",
              "type": "string"
            },
            {
              "internalType": "uint256",
              "name": "timestamp",
              "type": "uint256"
            }
          ],
          "internalType": "struct TransferFunds.TransferStruct[]",
          "name": "",
          "type": "tuple[]"
        }
      ],
      "stateMutability": "view",
      "type": "function"
    },
    {
      "inputs": [],
      "name": "getTransactionCount",
      "outputs": [
        {
          "internalType": "uint256",
          "name": "",
          "type": "uint256"
        }
      ],
      "stateMutability": "view",
      "type": "function"
    }
  ],
  "bytecode": "0x608060405234801561001057600080fd5b506106ed806100206000396000f3fe608060405234801561001057600080fd5b50600436106100415760003560e01c806327506f53146100465780632e7700f014610064578063eb12da4a14610075575b600080fd5b61004e61008a565b60405161005b919061036d565b60405180910390f35b60005460405190815260200161005b565b610088610083366004610429565b6101b3565b005b60606001805480602002602001604051908101604052809291908181526020016000905b828210156101aa5760008481526020908190206040805160a0810182526005860290920180546001600160a01b0390811684526001820154169383019390935260028301549082015260038201805491929160608401919061010f90610502565b80601f016020809104026020016040519081016040528092919081815260200182805461013b90610502565b80156101885780601f1061015d57610100808354040283529160200191610188565b820191906000526020600020905b81548152906001019060200180831161016b57829003601f168201915b50505050508152602001600482015481525050815260200190600101906100ae565b50505050905090565b60016000808282546101c5919061053c565b90915550506040805160a0810182523381526001600160a01b038581166020830190815292820185815260608301858152426080850152600180548082018255600091909152845160059091027fb10e2d527612073b26eecdfd717e6a320cf44b4afac2b0732d9fcbe2b7fa0cf6810180549286166001600160a01b031993841617815596517fb10e2d527612073b26eecdfd717e6a320cf44b4afac2b0732d9fcbe2b7fa0cf7820180549190961692169190911790935590517fb10e2d527612073b26eecdfd717e6a320cf44b4afac2b0732d9fcbe2b7fa0cf8830155519192917fb10e2d527612073b26eecdfd717e6a320cf44b4afac2b0732d9fcbe2b7fa0cf9909101906102d690826105b2565b506080820151816004015550507fc4b32d7ff75a51e487f3cbb5d3202f2efecca1f4c2b987e0039c1d3220b48a83338484844260405161031a959493929190610672565b60405180910390a1505050565b6000815180845260005b8181101561034d57602081850181015186830182015201610331565b506000602082860101526020601f19601f83011685010191505092915050565b60006020808301818452808551808352604092508286019150828160051b87010184880160005b8381101561040557888303603f19018552815180516001600160a01b039081168552888201511688850152868101518785015260608082015160a082870181905291906103e383880182610327565b6080948501519790940196909652505094870194925090860190600101610394565b509098975050505050505050565b634e487b7160e01b600052604160045260246000fd5b60008060006060848603121561043e57600080fd5b83356001600160a01b038116811461045557600080fd5b925060208401359150604084013567ffffffffffffffff8082111561047957600080fd5b818601915086601f83011261048d57600080fd5b81358181111561049f5761049f610413565b604051601f8201601f19908116603f011681019083821181831017156104c7576104c7610413565b816040528281528960208487010111156104e057600080fd5b8260208601602083013760006020848301015280955050505050509250925092565b600181811c9082168061051657607f821691505b60208210810361053657634e487b7160e01b600052602260045260246000fd5b50919050565b8082018082111561055d57634e487b7160e01b600052601160045260246000fd5b92915050565b601f8211156105ad57600081815260208120601f850160051c8101602086101561058a5750805b601f850160051c820191505b818110156105a957828155600101610596565b5050505b505050565b815167ffffffffffffffff8111156105cc576105cc610413565b6105e0816105da8454610502565b84610563565b602080601f83116001811461061557600084156105fd5750858301515b600019600386901b1c1916600185901b1785556105a9565b600085815260208120601f198616915b8281101561064457888601518255948401946001909101908401610625565b50858210156106625787850151600019600388901b60f8161c191681555b5050505050600190811b01905550565b6001600160a01b038681168252851660208201526040810184905260a0606082018190526000906106a590830185610327565b9050826080830152969550505050505056fea2646970667358221220b0915c00f4844c0a4ff7c745ebbba7bba49b9f90fba67703e364f7864543f46f64736f6c63430008110033",
  "linkReferences": {},
  "deployedLinkReferences": {}
}